{
  "contractName": "Crowdfunding",
  "abi": [
    {
      "stateMutability": "payable",
      "type": "receive",
      "payable": true
    },
    {
      "inputs": [],
      "name": "donate",
      "outputs": [],
      "stateMutability": "payable",
      "type": "function",
      "payable": true
    },
    {
      "inputs": [],
      "name": "getBalance",
      "outputs": [
        {
          "internalType": "uint256",
          "name": "",
          "type": "uint256"
        }
      ],
      "stateMutability": "view",
      "type": "function",
      "constant": true
    },
    {
      "inputs": [],
      "name": "withdraw",
      "outputs": [],
      "stateMutability": "nonpayable",
      "type": "function"
    },
    {
      "inputs": [],
      "name": "returnFunds",
      "outputs": [],
      "stateMutability": "nonpayable",
      "type": "function"
    }
  ],
  "bytecode": "0x6080604052678ac7230489e80000600055662386f26fc1000060015573733b9052fb62c40b344584b20280f6fcca3d628e600260006101000a81548173ffffffffffffffffffffffffffffffffffffffff021916908373ffffffffffffffffffffffffffffffffffffffff16021790555034801561007c57600080fd5b5061060c8061008c6000396000f3fe6080604052600436106100435760003560e01c806312065fe01461004f5780631eb5ea2e1461007a5780633ccfd60b14610091578063ed88c68e146100a85761004a565b3661004a57005b600080fd5b34801561005b57600080fd5b506100646100b2565b6040516100719190610362565b60405180910390f35b34801561008657600080fd5b5061008f6100ba565b005b34801561009d57600080fd5b506100a661020e565b005b6100b06102be565b005b600047905090565b60005447106100fe576040517f08c379a00000000000000000000000000000000000000000000000000000000081526004016100f590610400565b60405180910390fd5b6000600360003373ffffffffffffffffffffffffffffffffffffffff1673ffffffffffffffffffffffffffffffffffffffff1681526020019081526020016000205403610180576040517f08c379a000000000000000000000000000000000000000000000000000000000815260040161017790610492565b60405180910390fd5b6000600360003373ffffffffffffffffffffffffffffffffffffffff1673ffffffffffffffffffffffffffffffffffffffff1681526020019081526020016000205490503373ffffffffffffffffffffffffffffffffffffffff166108fc829081150290604051600060405180830381858888f1935050505015801561020a573d6000803e3d6000fd5b5050565b600054471015610253576040517f08c379a000000000000000000000000000000000000000000000000000000000815260040161024a90610524565b60405180910390fd5b600260009054906101000a900473ffffffffffffffffffffffffffffffffffffffff1673ffffffffffffffffffffffffffffffffffffffff166108fc479081150290604051600060405180830381858888f193505050501580156102bb573d6000803e3d6000fd5b50565b600154341015610303576040517f08c379a00000000000000000000000000000000000000000000000000000000081526004016102fa906105b6565b60405180910390fd5b34600360003373ffffffffffffffffffffffffffffffffffffffff1673ffffffffffffffffffffffffffffffffffffffff16815260200190815260200160002081905550565b6000819050919050565b61035c81610349565b82525050565b60006020820190506103776000830184610353565b92915050565b600082825260208201905092915050565b7f52657475726e46756e6473204572726f723a2043616e6e6f7420726566756e6460008201527f2c20676f616c20686173206265656e206d657400000000000000000000000000602082015250565b60006103ea60338361037d565b91506103f58261038e565b604082019050919050565b60006020820190508181036000830152610419816103dd565b9050919050565b7f52657475726e46756e6473204572726f723a20596f752068617665206e6f742060008201527f636f6e7472696275746564000000000000000000000000000000000000000000602082015250565b600061047c602b8361037d565b915061048782610420565b604082019050919050565b600060208201905081810360008301526104ab8161046f565b9050919050565b7f5769746864726177204572726f723a20446964206e6f74206d65657420636f6e60008201527f747269627574696f6e20676f616c000000000000000000000000000000000000602082015250565b600061050e602e8361037d565b9150610519826104b2565b604082019050919050565b6000602082019050818103600083015261053d81610501565b9050919050565b7f446f6e617465204572726f723a20446964206e6f74206d656574206d696e696d60008201527f756d20636f6e747269627574696f6e0000000000000000000000000000000000602082015250565b60006105a0602f8361037d565b91506105ab82610544565b604082019050919050565b600060208201905081810360008301526105cf81610593565b905091905056fea2646970667358221220aeb04f5790e2edc26b1df71a8de964a2bd7ea93e805472da43c9ba196037428264736f6c63430008130033",
  "immutableReferences": {},
  "source": "// SPDX-License-Identifier: MIT\r\npragma solidity ^0.8.13;\r\n\r\n\r\ncontract Crowdfunding {\r\n    uint256 fundGoal = 10 ether;\r\n    uint256 minContribution = 0.01 ether;\r\n\r\n    address payable destinationWallet = payable(0x733B9052fB62C40B344584B20280F6FCcA3D628e);\r\n\r\n    mapping(address => uint256) addressContributions;\r\n\r\n    function donate() public payable {\r\n        require(msg.value >= minContribution, \"Donate Error: Did not meet minimum contribution\");\r\n        addressContributions[msg.sender] = msg.value;\r\n    }\r\n\r\n    function getBalance() public view returns (uint256) {\r\n        return address(this).balance;\r\n    }\r\n\r\n    function withdraw() public {\r\n        require(address(this).balance >= fundGoal, \"Withdraw Error: Did not meet contribution goal\");\r\n        destinationWallet.transfer(address(this).balance);\r\n    }\r\n\r\n    function returnFunds() public {\r\n        require(address(this).balance < fundGoal, \"ReturnFunds Error: Cannot refund, goal has been met\");\r\n        require(addressContributions[msg.sender] != 0, \"ReturnFunds Error: You have not contributed\");\r\n        uint256 amount = addressContributions[msg.sender];\r\n        payable(msg.sender).transfer(amount);\r\n    }\r\n\r\n    receive() external payable {}\r\n}",
  "sourcePath": "C:\\Users\\User\\Desktop\\Crowdfunding project\\web3test\\contracts\\Crowdfunding.sol",
  "compiler": {
    "name": "solc",
    "version": "0.8.19+commit.7dd6d404.Emscripten.clang"
  },
  "schemaVersion": "3.4.13",
  "updatedAt": "2023-04-24T11:52:13.070Z",
  "networkType": "ethereum",
  "devdoc": {
    "kind": "dev",
    "methods": {},
    "version": 1
  },
  "userdoc": {
    "kind": "user",
    "methods": {},
    "version": 1
  }
}